:020000041000EA
:1000000000200008EB0000100D0000004D01001062
:1000100000000000000000000000000000000000E0
:100020000000000000000000000000004901001076
:10003000000000000000000049010010490100100C
:100040004901001049010010490100104901001048
:100050004901001049010010490100104901001038
:100060004901001049010010490100104901001028
:100070004901001049010010490100104901001018
:1000800010B5064C2378002B07D1054B002B02D06E
:10009000044800E000BF0123237010BDB003000836
:1000A0000000000014150010044B10B5002B03D005
:1000B0000349044800E000BF10BDC0460000000036
:1000C000B4030008141500100230800803D001307A
:1000D0000238FCD1C046C0467047EFF3108072B6BC
:1000E000704780F3108870477047FFF7FDFF72B6C6
:1000F0000F4C104DAC4209DA21686268A368043BDA
:1001000002DBC858D050FAE70C34F3E70A490B4A2F
:100110000020521A02DD043A8850FCDC08480949E4
:100120000860BFF34F8F00F0EDFE00F09BFEFEE78E
:100130002015001038150010B0030008C80500088D
:100140000000000808ED00E0FEE7FEE700B504202F
:100150007146084202D0EFF3098002E0EFF3088015
:10016000043000F091FCFEE7014B18607047C04678
:10017000CC030008044B1B681A00BA3212881B6AB1
:100180005043C0187047C046CC030008A02300B5F8
:100190001B06984226D015D8802825D00AD81028CA
:1001A00024D0402824D000280BD0154809E0A420F2
:1001B000C00306E08022134B520090421CD09842AC
:1001C000F3D100BD104B984218D0104BC018042832
:1001D000EBD800F035FFECEA0F0305000C48F0E720
:1001E0000C48EEE70020ECE70B48EAE70B48E8E7AD
:1001F0000B48E6E70B48E4E71800E2E7A020D7E762
:10020000FF00520006005200090000A0FFFFFF0F90
:10021000020052000300520005005200010050008D
:10022000020050000100520010B50020FFF7A2FFAD
:100230000A4B1C682300BC331B68C0180368002BE2
:100240000ADB074B1868FFF7A1FF012263689A6079
:100250009A68002AFCD110BD0248FCE7CC030008D4
:10026000D003000802005000064B1B68BC331B681B
:10027000C3181B68002B03DA89B241600020704765
:100280000148FCE7CC03000801008A000368002B4A
:1002900004DA89B2C2608160002070470048FCE740
:1002A00001008A00064B1B68BC331B68C3181B681F
:1002B000002B03DAC36800200B6070470148FCE79D
:1002C000CC03000801008A00024B1A68002A00D102
:1002D00018607047E4030008F0B52C244443154827
:1002E0001F0000681E0A0019FF2426402740124CF8
:1002F0001B0C256807602C6A46608360BA352D8820
:100300006F433F190761370080377F01E7190B4DB5
:1003100076014761A4191F043B436419236000233D
:100320008361059BC2610162002B01D01B88838120
:10033000F0BDC046E4030008CC030008081000002C
:10034000F0B5836885B002AD2B800368066A173369
:100350006B804368476A0095826AC16A0400039310
:100360000369C068FFF7B8FF00213B000A003000B6
:100370000091FFF7B1FF2800216B00F039FB00224C
:10038000AB5E002B06DB1F2213401E3A9A4013007F
:10039000014A136005B0F0BD00E100E0F7B52C267E
:1003A000134C70434E43246801932518A4192E69F9
:1003B000002E19D0A069002818D13168002915DA5B
:1003C00001216F680D0063689D40AC4613689DB2C3
:1003D00063461B041D431560F260A161B940019B97
:1003E00089B26362B160FEBD0248FCE70248FAE7E9
:1003F000E403000804028A0007028A0073B500269D
:1004000042690400D56801962B0CB34221D01B042D
:1004100013601368194B00691B68BC331B68C31851
:100420001B68B34215DA01A9FFF73CFFB0420CD1BB
:100430000198E26903681E0CDBB29A4205D9226A70
:100440009B009B58002B00D0984731002069FFF794
:100450000BFFADB2002D09D063691D6000251B683C
:10046000636AAB4205D098476562A56163691B6802
:1004700073BDA36A002BF8D09847F6E7CC030008B9
:100480002C2310B54343034A1068C018FFF7B6FF8A
:1004900010BDC046E40300081A4B70B51A680C0082
:1004A000130033331B7883422AD9002928D00D68E2
:1004B0001F212B000B400D4222D11100BA310988B7
:1004C000126A48431900104D8018286022685209AA
:1004D000934210D30021FFF7C7FE002122002868B5
:1004E000FFF7D4FE011E04D12868FFF7BDFE0028E7
:1004F00000D0064870BD66689A0091510133E5E767
:100500000348F7E7CC030008E803000801018A006C
:1005100003018A0010B504000800002A0CD100294C
:1005200013D10B4B1A681300BA331B88126A63434A
:100530009B18084A136010BD002906D006490860C0
:1005400020004A60FFF7A8FFF5E70448F3E7C0463C
:10055000CC030008E80300087803000803018A00C0
:10056000F7B5184F04003B680191DE683368834299
:1005700026D90025A94202D1FFF7AFFD0500386852
:100580000368002B1ADA1F220123224093406409DA
:100590007268A4001419226813420DD09A43226095
:1005A00000240021FFF760FE019B002B02D12800F0
:1005B000FFF797FD2000FEBD034CF2E7034CF3E785
:1005C000034CF7E7E80300080201880003018800F4
:1005D00004018A000A4B1B68DB681A6882420DD945
:1005E00059681F23420918401E3B8340920050580F
:1005F0001840431E9841034BC01870470248FCE75F
:10060000E80300080001880004018A00054B1B680C
:100610001A0088321B6812689B181868000AC0B25A
:100620007047C046CC030008044B1B681A00883290
:100630001B6812689B181868000E7047CC030008EE
:10064000034BE0308000C0588006800F7047C046E2
:1006500000002640024B18694007C00F7047C04693
:1006600000002740A6220549D2008B580220DB4318
:100670009B0702D00123885818407047000026408D
:1006800010B5FFF7EFFF0023022801D1014B1B68D3
:10069000180010BDF0030008094A83009B18D022FF
:1006A0009200985807221040042807D1C0229200D7
:1006B00098581F2303408020400018437047C046CD
:1006C0000000264010B5FFF7E7FF88235B00984243
:1006D0001AD009D8012811D0022812D0434258411B
:1006E000114B4042184010BD1223FF33984213D0E3
:1006F0001423FF33984214D00020F4E70B4B186802
:10070000F1E7FFF7BDFFEEE7094A0A4BD358002B8C
:10071000F2DA80200002E6E7FFF79CFF0028EBD02A
:10072000F7E7034A044BF1E700127A00EC030008F4
:10073000000026400C0500003C050000B023154ACF
:10074000DB00D35810B59903DB01DB0F890BC371B4
:10075000114B0160D3580F24D904DB01DB0D038159
:10076000B123DB00D358C90C81801900214081726C
:1007700019092140C172D9029B009B0F8373074B5B
:10078000C90CD35881815A05DB01520FDB0D8271F0
:10079000038210BD00002640840500008C05000087
:1007A0008030034BFF308000C058C00F7047C046F8
:1007B0000000264010B5104B421E1B683F331B78CB
:1007C000934216D97F221F2480300C4BFF308000CB
:1007D000C3581A400A701A0C2240180A8A701A016B
:1007E0002040E240487000209B009B0FCA700B71B4
:1007F00010BD0348FCE7C046CC03000800002640BB
:1008000001004A00F0B589B003AC2000FFF796FF65
:10081000B0231A4ADB00D25800239A4203DAA37BA2
:10082000023B5A1E9341E57900266A1E9541013527
:10083000B34220D0A488B4421DD03000039FFFF7FC
:1008400041FF2A00330031000190200000F0AEFC8F
:100850000C00050033003A003100019800F0A6FCBE
:10086000E6076A0832436308801859412A002300CA
:1008700000F07CFC0600300009B0F0BD000026400E
:10088000F7B5234B06001B683F331B78002B08D0BD
:1008900000283BD0834204D36946FFF78BFF041E38
:1008A00001D0002632E03000FFF77AFF2300002855
:1008B00005D06B461C79023C23005A1E93416A46C0
:1008C0005478002BEDD0002CEBD09578002DE8D09B
:1008D00030001778FFF7F6FE002306002A002000FC
:1008E000190000F063FC00230C0005003A00300002
:1008F000190000F05BFCE6076A08324363088018C1
:1009000059412A00230000F031FC06003000FEBDF2
:10091000CC03000810B5041E04D1FFF773FF0028B4
:1009200006D008E0064B1B683F331B78834203D296
:100930002000FFF7C7FE10BDFFF7A2FFEFE7C0469C
:10094000CC03000870B50500FFF77AFEE035074BD1
:10095000AD000400E8580F231840FFF7DBFF012328
:10096000A3405B081818E04070BDC0460000264058
:10097000144B30B51C6823002C331A7807231F2A28
:1009800015D8820815009D432B1E0FD10333184044
:10099000984081402368920020339B180A00FF2171
:1009A00081401C68624011406140196030BD1840B0
:1009B00080231B06184380239B012268C9188900E5
:1009C0008850F3E7CC030008064B10B59A68064C34
:1009D00010308300A24202D19858995010BD034AAA
:1009E000D058FBE700ED00E0000000080000001018
:1009F000F8B506000D0000283AD00023C05E00289C
:100A000028DB7188FFF7B4FF0024FF2203279446F8
:100A10000023F05E71680740FF006646BA40890116
:100A20003140D243B94083B2002815DB114E830810
:100A30009B009B19C026B6009F593A40114399511B
:100A40000D4B9A680D4B9A4202D12900FFF7BCFF6B
:100A50002000F8BD0A4CD8E70F263340083B064E6D
:100A60009B089B009B19DE6932401143D961E7E77F
:100A7000034CEDE700E100E000ED00E000000008BD
:100A800001005600FEE7000002680A4B10B51A602C
:100A900042685A6082689A60C268DA6002691A61C4
:100AA00042695A6182699A61C269DA61FFF7EAFFB5
:100AB00010BDC04690030008B0235B055A78212082
:100AC000002A01D05878C0B27047B0235B059A89DC
:100AD000002A02D0988980B2704780204000FBE74E
:100AE0007FB5274B86000D00F458042901D0012959
:100AF00027D100200FE0A3682B420BD1E368290027
:100B00001A685B6802920193039302A823689847CE
:100B10001C4B1C606469002C0BD01B4B9842EAD123
:100B2000012DE8D1174B18481A68184B9A5104B098
:100B300070BD012DFBD1144B9842F3D0134B9C5147
:100B4000F5E7022915D026006469002CFBD10020AE
:100B5000002EECD0B3682B4209D1F36829001A6843
:100B60005B6802920193039302A833689847366941
:100B7000EEE7044B1B68181ED9D01E69E7E7C04694
:100B80003404000830040008FF0042001C04000880
:100B90001A4B1B68190088311A68096851180968CE
:100BA000016219008C3109685218126842621A00F9
:100BB00046321278002A1FD09A68E0321268D206B4
:100BC0001AD5F222DB68D2019A580260F022D201D3
:100BD0009A5842600A4A9A5882600A4A9A58C260F1
:100BE000094A9A580261094A9A584261084A9A5831
:100BF0008261084A9B58C3617047C046CC03000815
:100C000004780000087800000C78000010780000DC
:100C100014780000187800001A4B1B681A008832FC
:100C2000196812688A18016A11601A008C321968F2
:100C300012688A18416A11601A0046321278002A36
:100C40001ED09A68E0321268D20619D5F0224168A7
:100C5000DB68D201995081680B4A9950C1680B4AF0
:100C6000995001690A4A995041690A4A9950816923
:100C7000094A9950C169094A99500168E832995066
:100C80007047C046CC0300080478000008780000D4
:100C90000C7800001078000014780000187800002C
:100CA000F7B50700FFF708FF5D4D06006B68002BE6
:100CB00000D07DE0FFF711FA6B680090002B00D0A8
:100CC00089E0584C22681300BA33198807234B4334
:100CD000126A9B181A68002AFCDADB68DA0021D550
:100CE0001B0F1B0750480193FFF752FF20684F4925
:100CF000030088331C6803681C1923680B40212EED
:100D000000D06DE0902212011343236003008C3366
:100D100000681B68C318186801400A431A60424BF8
:100D2000019A134380223F4E9205316813430A0013
:100D3000BA321088072200244243096A5218D3604D
:100D400054605368FFF7C1FE80235B0098424AD18C
:100D5000380000F05DFB32681300BA3319880723AE
:100D60004B43126A9B181A68002AFCDADF68FB0002
:100D700003D538010009FFF74FFF2D4B32681F40A4
:100D80001300BA33198807234B43126A00989B1843
:100D90000022DF605A60FFF7A4F9002C0FD16B68C6
:100DA000002B03D008210120FFF79AFE2000FEBD92
:100DB00001210800FFF794FE041E00D17AE76B685A
:100DC000002B03D002210120FFF78AFE194B9C4221
:100DD000ECD0194CEAE704210120FFF781FE70E70F
:100DE0008022520090E733681A00BC32196A1268F8
:100DF00052181168002910DBBA331B889A1813683F
:100E0000002B0ADB04230D4A11690B431361012FE8
:100E100001D030BF9FE720BF9DE7064C9BE7C0464F
:100E200034040008CC030008F4030008FF00FFFFAF
:100E3000FFFFFFDF05004200FF00420000ED00E081
:100E4000C0228020064952008B58C0059B009B0899
:100E500003438B50802388581B0603438B507047F5
:100E60000000264010B562B6034800F0C3F8002029
:100E7000FFF716FFFBE7C0460020001010B500206A
:100E8000FFF7FEFA10BD704710B50020FFF75AFDBE
:100E9000041E28D0144B1860FFF7C6FB411C20002D
:100EA00000F0D8F8114B04001860FFF7AFFB411CAD
:100EB000200000F0CFF804000D4B013C18600D49F4
:100EC000200000F0C7F8FA210B4B013018708900A0
:100ED000200000F0BFF8094B013018600020FFF738
:100EE00031FD074B186010BD880000088C00000819
:100EF0008000000840420F009400000890000008A5
:100F00008400000810B52048FFF72EF9B022E02138
:100F100030201E4CD200A35889005B005B08A35010
:100F200063588343635080235B04A350184B194AD2
:100F3000E250A02204339201E250FF22164BE2500D
:100F4000FFF77EFFC02201215200A3588B43A3501C
:100F5000FFF799FFFFF798FF104B03201A68130063
:100F6000BA33198807234B43126A80219B18002249
:100F7000DA605A600A4AFFF7CDFA0A48FFF7A4F987
:100F80000948FFF7DDF910BD2014001000002640CD
:100F900084050000010002008C050000CC0300085D
:100FA0008003000848040008E01400109023034A5E
:100FB0005B01D058032318407047C0460000204012
:100FC00010B59024FFF789F8074B64011A590749B7
:100FD0001140074A0A431A51102259681142FCD0A5
:100FE000FFF77FF810BDC04600002040FCFF000066
:100FF0000100FA05F8B590260E4C76010700FFF7C0
:101000006CF8A3590500DB439B0701D1FFF7D8FF1C
:1010100080239B00E750A359074A1A40074B13430C
:10102000A351102362681A42FCD02800FFF759F838
:10103000F8BDC04600002040FCFF00000300FA0598
:1010400002B4714649084900095649008E4402BC61
:101050007047C046002243088B4274D303098B4279
:101060005FD3030A8B4244D3030B8B4228D3030C78
:101070008B420DD3FF22090212BA030C8B4202D31A
:101080001212090265D0030B8B4219D300E0090A42
:10109000C30B8B4201D3CB03C01A5241830B8B424B
:1010A00001D38B03C01A5241430B8B4201D34B0334
:1010B000C01A5241030B8B4201D30B03C01A524199
:1010C000C30A8B4201D3CB02C01A5241830A8B421E
:1010D00001D38B02C01A5241430A8B4201D34B0207
:1010E000C01A5241030A8B4201D30B02C01A52416B
:1010F000CDD2C3098B4201D3CB01C01A524183091F
:101100008B4201D38B01C01A524143098B4201D358
:101110004B01C01A524103098B4201D30B01C01A83
:101120005241C3088B4201D3CB00C01A52418308FD
:101130008B4201D38B00C01A524143088B4201D32A
:101140004B00C01A5241411A00D20146524110468A
:101150007047FFE701B5002000F006F802BDC04669
:101160000029F7D076E770477047C046002B11D1B1
:10117000002A0FD1002900D1002802D00021C94344
:10118000080007B4024802A14018029003BDC046FF
:10119000D9FFFFFF03B4684601B5029800F034F8A8
:1011A000019B9E4602B00CBC7047C046F0B5CE46CF
:1011B000474680B5070099463B0C9C4613041B0C20
:1011C0001D000E0061460004140C000C45434B4307
:1011D00060436143C0182C0C20188C46834203D90D
:1011E00080235B029846C444494679437243030C0A
:1011F00063442D042D0CC918000440198918C0BC83
:10120000B946B046F0BDC046F0B557464E464546D5
:10121000DE46E0B504000D009246994683B08B424D
:1012200030D82DD04946504600F0D8F829000600A5
:10123000200000F0D3F8331A9846203B9B4633D465
:101240005A465346934042461F00534693401E0061
:10125000AF423AD8AF4200D178E05B46A41BBD4113
:10126000002B00DA75E00022002300920193012395
:101270005A4693400193012342469340009328E04D
:101280008242CFD900220023009201930C9B002BB5
:1012900001D01C605D600098019903B0F0BCBB46B2
:1012A000B246A946A046F0BD424620239B1A5246AC
:1012B000DA40414613004A468A40170042461F431F
:1012C000534693401E00AF42C4D90022002300922F
:1012D00001934346002BD9D0FB0772081A434646B8
:1012E0007B080EE0AB4201D1A2420CD8A41A9D416A
:1012F000012024196D410021013E24184D41002E8A
:1013000006D0AB42EED9013E24196D41002EF8D132
:10131000009801995B4600196941002B24DB2B00E2
:101320005A464446D3402A00E2401C005B46150062
:10133000002B2ADB26009E40330026004746BE4095
:101340003200801A9941009001919FE7A342BCD8D6
:1013500083E74246202300219B1A0022009101923C
:101360000122DA40019286E7424620239B1A2A0096
:1013700046469A402300F340444613432A00E24085
:101380001C005B461500002BD4DA42462F002023B8
:10139000260097409B1ADE403B003343CDE7C04612
:1013A0001C2101231B04984201D3000C10391B0A95
:1013B000984201D3000A08391B09984201D3000959
:1013C000043902A2105C40187047C04604030202B0
:1013D00001010101000000000000000010B500291B
:1013E00003D1FFF7DDFF203002E00800FFF7D8FF50
:1013F00010BDC046F8B5C046F8BC08BC9E46704754
:10140000F8B5C046F8BC08BC9E4670470000000016
:1014100001B40248844601BC604700BF6102000875
:1014200000002040000024400000004000000000B8
:1014300000002340000030400000314000009F4089
:10144000000022400000104000009D40202020208D
:1014500020101010101D1D8017007500FF030602DC
:1014600006003604102000007FC0000000040000C9
:10147000000000000019324B647D00000000008075
:101480004000080B100000000000FF012002001FB8
:1014900000800004FF081018001000140018001C41
:1014A0004044484C500000000810000008000000B4
:1014B00004000000041000000012000004210000DD
:1014C000002100000016000040114002C413001368
:1014D0008013A01340138813A81320001C000000E1
:1014E00003000000010000000100000000000000F7
:1014F000050360000400000001000000000000007F
:10150000010000000604600008000000A8050008B3
:101510007D0E001000000000F0FCFF7F01000000C5
:1015200000000010000000088000000040150010BE
:1015300080000008F8020000B00300081802000054
:1015400000093D0000093D0000127A0000093D003D
:10155000A00F000004000000A9000010810000108E
:1015600080B230B5C400002820D0114B0722186883
:101570000300BA331B885343026A9A181168002982
:10158000FCDA3E210B4A062511600B4A0B4911601B
:10159000A3210B4AC90055500A495450006A5458B7
:1015A0001B18002058605358002BFCDA30BDC04691
:1015B000CC03000804012640080126401E1F00003D
:1015C000000026401C05000010B54378FF2B11D108
:1015D00000F0FAF80400032000F00EF90121C368BE
:1015E0005B681A680A431A601A680A42FCD1200034
:1015F00000F01AF910BDF7B507000020019100F0C6
:10160000FBF83E4C050023681A005033BC321668C4
:101610001B788619002B59D000F0F6F800900328AB
:101620001AD000F0D1F8364A364B0400D358002BBC
:101630003CDA01212800344A00F0D6F8002835D1E0
:101640000198FFF78DFF002F3ED03368002BFCDBA5
:1016500000F0B2F805002AE0062000F0CDF823687B
:10166000BC331B68C0180368002B02DA274D280022
:10167000FEBD002000F0B0F8254B9842F6D00023C4
:10168000244A19000120126800F0C6F8041EEDD1AA
:10169000002000F0A1F81E4A1F4B904203D09C424C
:1016A000E4D00134F4E79C42BBD1DFE7174D009B47
:1016B000032B05D10121002000F076F80028F9D194
:1016C000200000F0B1F8D2E7144DF0E700F07CF80C
:1016D000012104000C4A280000F086F8002808D1F7
:1016E000002F08D03368002BFCDB00F065F8050004
:1016F000E6E7064DE4E7094DE2E7C046CC03000803
:10170000000026401C050000D00300080500520020
:1017100001018800E0030008F049020001005000C8
:10172000184BF7B51B6818495A6804230C69234302
:101730000B61012824D030BF1300FC331B69002B40
:101740001DD1A324114B12481249E40007681E5909
:101750000D680195104D056006251D513E240C6055
:101760000E4C3E351D511D59002DFCDA0C4CFC323F
:101770001461A322D20007609E50019B0B60F7BD4D
:1017800020BFD9E7CC03000800ED00E000002640B0
:1017900008012640040126401E1F00001C05000011
:1017A000AAAAAAAA0000000001B40248844601BC0B
:1017B000604700BF6105001001B40248844601BCC7
:1017C000604700BF2902001001B40248844601BCF2
:1017D000604700BFDB00001001B40248844601BC32
:1017E000604700BFD505001001B40248844601BC23
:1017F000604700BF8D02001001B40248844601BC5E
:10180000604700BF7501001001B40248844601BC66
:10181000604700BFAD0F001001B40248844601BC10
:10182000604700BF9D03001001B40248844601BC1C
:10183000604700BFE300001000000000000000004F
:101840000000000000000000000000000000000098
:1020000000F80F08252300100D0000009923001090
:10201000992300109923001099230010000000005C
:10202000000000000000000000000000D15E001071
:102030009523001000000000715F0010715E001019
:102040009523001095230010952300109523001070
:102050009523001095230010952300109523001060
:102060009523001095230010952300109523001050
:102070009523001095230010952300109523001040
:1022E00010B5054C237833B9044B13B10448AFF350
:1022F00000800123237010BD782B0008000000002F
:10230000505D011008B5034B1BB103490348AFF3FF
:10231000008008BD000000007C2B0008505D01100B
:1023200070477047FFF7FCFF72B6144C144DAC4277
:1023300009DA21686268A368043BA2BFC858D0507C
:10234000FAE70C34F3E70F490F4A00209142BCBF73
:1023500041F8040BFAE70D480D490860BFF34F8FB1
:1023600000F084F800F068F803F0DDFC0DF0D6FD15
:1023700000F0DCFB0DF070FDFEE700005C5D01107D
:10238000745D0110782B00085444000800200008F8
:1023900008ED00E0FEE7FEE700B5042071460842C4
:1023A00002D0EFF3098002E0EFF3088004300BF075
:1023B000CDFFFEE708B501200AF0A4F808BD70477C
:1023C00010B500200BF0B0FE00B910BD0446124B52
:1023D00018600BF0B3F80130B4FBF0F00F4B18604D
:1023E0000BF0C4F80130B4FBF0F40D4B1C60013C61
:1023F0000C4BA3FB04239B0C01330B4A13700B4BB8
:10240000A3FB0434A4090134094B1C6000200BF029
:102410008BFE084B1860D8E7E8220008EC22000881
:10242000E022000883DE1B43F4220008D34D621033
:10243000F0220008E422000808B5094809F04CFC25
:10244000FFF7BDFFFFF7BCFF0022114603200AF093
:10245000B5F8044809F010FF034809F065FF08BD0E
:1024600094580110942B0008583B0110EFF3108191
:1024700072B6074AD2F8883043F47003C2F8883045
:10248000BFF34F8FBFF36F8F81F31088704700BF8A
:1024900000ED00E008B500F0CBF800F00FF800F018
:1024A000BDF800F047F800F04DF808BD08B500F0A1
:1024B000BDF900F02DF800F05FF808BD08B50F2158
:1024C00001200AF039FF00220F2101200AF0A8FDA7
:1024D0000F2101200AF0EEFE002108460AF02CFF31
:1024E0000022114610460AF09BFD002108460AF022
:1024F000E1FE072100200AF01FFF002207211046FD
:102500000AF08EFD072100200AF0D4FE08BD00006D
:1025100008B5054807F0BEFA044807F0BBFA0448BE
:1025200007F0B8FA08BD00BF183E0110103E0110B8
:10253000143E011008B5002211462F200AF07EFE3D
:1025400008BD000010B5084C084A0421204609F0D7
:10255000A9FD074A0621204609F0A4FD054A0721E6
:10256000204609F09FFD10BD00033140B83E011028
:10257000803E0110483E011008B5184807F08AFA5D
:10258000174807F087FA174807F084FA164807F04B
:1025900081FA164807F07EFA154807F07BFA1548CD
:1025A00007F078FA144807F075FA144807F072FA41
:1025B000134807F06FFA134807F06CFA124807F057
:1025C00069FA124807F066FA114807F063FA1148F1
:1025D00007F060FA104807F05DFA08BDF03E011000
:1025E000F43E0110303E0110EC3E0110B43E0110EB
:1025F0007C3E01101C3E0110203E0110243E0110C3
:10260000283E01102C3E0110343E0110383E0110CE
:102610003C3E0110403E0110443E0110024B33226B
:102620009A601A61704700BF00203040FEE700004A
:1026300030B583B00722002132200AF0FFFD962139
:1026400000200BF0D5FE0BF065FEC0B96F4BD3F840
:10265000004F04F03F040BF04DFE30B101200BF0B1
:102660003FFE6B4B9B6C002B26DB684BC3F8004F87
:102670000BF062F80BF056F801200BF071F8012016
:102680000CF00CFC0CF0B2FB0CF08CFC0CF076FCAB
:102690000BF04EF9002108460AF0ECFF00200AF08A
:1026A00057FF01200AF03CFF00200AF0C1FE594B01
:1026B0001B6893F83F4006E00620FFF7B7FF20466F
:1026C0000BF072FA013C002CF9D1002101200BF033
:1026D0007BF800200AF0BCFF00287BD000210846D0
:1026E0000BF072F8002108460AF092FF4A4D0024D0
:1026F0000094234622462146284609F0CFFB009449
:10270000234622460121284609F0C8FB43480AF027
:10271000EBFF00286AD101200AF0EAFE00200AF04F
:1027200017FF00200AF0FCFE00200AF081FE0021C5
:1027300001200BF049F8002108460BF045F8002174
:1027400002200BF041F8002103200BF03DF800219E
:1027500004200BF039F8002105200BF035F8304843
:102760000BF000F9002844D12E480BF0ABF90028FB
:1027700042D1002108460AF04BFF002108460AF02A
:1027800079FF294901200BF035FAC0BB42F21071E4
:1027900001200BF0BDFAA8BB0AF0A0FE00200AF051
:1027A00071FE00200AF084FE0AF08EFE0021084629
:1027B0000CF058FC01200AF055FE0AF0B3FF01208E
:1027C0000AF0CEFF642100200BF012FEFFF7F8FDA7
:1027D00003B030BD0BF026F840F2111398427FF49D
:1027E0007DAF012100200AF013FF77E70520FFF7F6
:1027F0001DFF0420FFF71AFF0420FFF717FF032037
:10280000FFF714FF0320FFF711FF00BF00F0274080
:1028100000002740E44200080000314040420F0021
:10282000F83E0110400D0300243F011008B509488F
:1028300007F030F9084807F02DF9084807F02AF9A1
:10284000074807F027F9074807F024F9064807F07A
:1028500021F908BD0C3F0110103F0110143F011079
:10286000183F01101C3F0110203F011008B504481B
:102870000BF040FF08B1002008BD0248FCE700BF94
:102880002C2400080000020610B507F001F90446E8
:1028900038B154B1FFF7FEFDFFF708FE5CB12046EA
:1028A00010BD08F027F80446F3E740F6E4410020A5
:1028B00008F0D2F8EEE7FFF7D9FF0446EFE7000093
:1028C000014B01221A707047642E000808B50128D8
:1028D00003D0044808F040FC08BD024808F024FC7E
:1028E000FAE700BF2C2E000830B587B0144B0FCB91
:1028F00006AC04E90F000022FF21124808F0EAFBB1
:1029000000B101BE0F4C02A9204608F03DFC42F286
:102910001071204608F04AFB04F1080500220A491C
:10292000284608F0C3F901220092072329462046D1
:1029300008F0FCF9204608F0F7FB07B030BD00BFF7
:102940002C3F01102C2E0008C128001008B5FFF7FD
:10295000CBFF094808F0E8FB084B1B78002BFBD0A5
:10296000064B00221A70064B1B68986905218030BF
:1029700009F00CFBF0E700BF2C2E0008642E0008C5
:10298000E442000800B583B001A9094B186803F0C0
:102990004AFD019048B14FF0E0234FF08052C3F858
:1029A000042DBFF34F8FBFF36F8F03B05DF804FBAF
:1029B000782E000808B50249024802F03CFA08BD2A
:1029C000F82200080000364008B502480BF092FEDD
:1029D00008BD00BF5024000810B50C4C204600F084
:1029E00051FD0B490B480BF02BFC0B4B4FF4002215
:1029F000C3F884215A60FFF7E7FF22460749022007
:102A000000F054FD204600F065FC10BDF8220008DF
:102A1000B5290010943F011000E100E08529001065
:102A200038B51C4C2146002003F01DF9054622460E
:102A30000021012003F027F9044635B1164B1B682D
:102A40001BB9164B01221A7002E0144B00221A70B7
:102A500034B1134B1B681BB9124B01221A7002E0F0
:102A6000104B00221A700B49022003F022F9036870
:102A70001B880D4AA2FB03235B080C4A13800179D3
:102A80000B4A1170044A1560054A1460094A138004
:102A900038BD00BFF8220008682E00086C2E000820
:102AA000702E0008742E0008ABAAAAAA7C2E00087B
:102AB000802E00087E2E000808B50021012003F0BA
:102AC000A7FE0D4B1860FFF787FF0C4802F0ABF92B
:102AD0004FF0FF31084B186803F0B7FF074C204652
:102AE00000F05AFCFFF79CFF204602F09CF93220D0
:102AF00004F056FBECE700BF782E0008F82200082F
:102B000008B506480EF05AF8054B1B7803B908BD06
:102B1000044B198804480DF0B5FFF8E73C3F01105D
:102B2000802E00087C2E00087C3F011010B582B07A
:102B3000FFF7AAFE00B101BE0123062219460D20AF
:102B400006F0A2FE00B101BE62B60024019400941A
:102B5000234680221449154804F070F94FF4E133FC
:102B60000093FF231A46282129200CF0C9FC1048A5
:102B70000DF088FF01940123009323464FF4007267
:102B80000C490D4804F05AF90194009423464FF47F
:102B900000720A490A4804F051F904F083F901BEB1
:102BA000204602B010BD00BF9C3F01104D2900100F
:102BB000A83F0110B43F0110B92A0010C03F011016
:102BC000D92E001070B505460E46014607480DF097
:102BD00059FF002406E056F82420214604480DF051
:102BE00051FF0134AC42F6DB002070BDCC3F011038
:102BF000D83F011008B508480DF0E0FFBFF34F8F34
:102C00000649CA6802F4E062054B1343CB60BFF388
:102C10004F8F00BFFDE700BFE83F011000ED00E06F
:102C20000400FA0510B50A480DF0C8FF002308E0BB
:102C30005C1C084A02EBC312214607480DF022FF34
:102C40002346064A12689A42F2DC002010BD00BFFB
:102C500000400110842E0008144001108433000845
:102C600038B504460D46094B1B6823B92946204652
:102C700006F0A8FA38BD06480DF0A0FF05480DF093
:102C80009DFF024B00221A60F0E700BF6C24000891
:102C90001C40011064400110F8B50746B0B10E4663
:102CA00000240B4D01E00C350134092C0AD82968A9
:102CB000306805F00BFC0028F5D1AB68314638468A
:102CC000984703E003480DF079FF0020F8BD00BFEE
:102CD00004450110A440011038B502280BD0184853
:102CE0000DF06CFF17480DF069FF17480DF066FFF7
:102CF0000025284638BD0C461449606805F0E6FBFF
:102D0000054678B11249606805F0E0FB054668B1F8
:102D10001049606805F0DAFB054658B90E480DF019
:102D20004DFFE6E70D480DF049FFE2E70C480DF0D6
:102D300045FFDEE70B480DF041FF4FF0FF35D8E7C8
:102D4000BC400110C8400110D4400110E440011003
:102D5000204101103C41011048410110E8400110A0
:102D6000244101106C41011000B5FFB001A805F02D
:102D7000FDF80A480DF022FF09480DF01FFF01A9D8
:102D800008480DF07FFE08480DF018FF07480DF0C9
:102D900015FF00207FB05DF804FB00BF88410110E3
:102DA000B4410110E0410110E441011068420110FA
:102DB00038B5022804D012480DF000FF002038BDBD
:102DC0000C46486804F0B2FE054660B104F066FCAB
:102DD00085420FD0284604F0EDFD616809480DF0EA
:102DE00051FE0020EBE7616807480DF04BFE4FF005
:102DF000FF30E4E705480DF0E1FE4FF0FF30DEE77D
:102E000088420110D4420110A0420110B4420110C6
:102E100008B5024806F05EF9002008BD8C330008B2
:102E200038B5022808D015480DF0C8FE14480DF03A
:102E3000C5FE0025284638BD0C461249606805F0DD
:102E400045FB054660B11049606805F03FFB05464B
:102E500068B90E480DF0B2FE0020FFF737FDE9E734
:102E60000B480DF0ABFE0120FFF730FDE2E709480B
:102E70000DF0A4FE4FF0FF35DCE700BFE842011083
:102E8000F4420110004301102043011028430110B7
:102E9000084301106C41011070B500260B4C11E085
:102EA0000B4D216828460DF0EDFD0A4928460DF02E
:102EB000E9FD616828460DF0E5FD0A200DF0FAFDF8
:102EC0000C340136092EEBD9002070BD04450110E9
:102ED000E04101104043011010B582B00F4B18685B
:102EE00000230222194640680DF0EAFE0C480DF05E
:102EF000C9FD0C4C00940C4B0C4A0D49204605F0C2
:102F0000BDFD0C49204605F00EFE201D06F0B6F86A
:102F1000204605F0E3FD02B010BD00BF14250008F7
:102F2000A83F011088330008612C00109D9100100B
:102F3000839100104443011070B50446144B1D6882
:102F4000092D13DC134E06EBC516802201463046D0
:102F50000EF033F8002386F87F3001350C4B1D60EE
:102F600000220D49204606F097F970BD094D4FF437
:102F7000906205F1800128460DF016F88022214666
:102F800005F590600EF019F8002385F8FF34E7E7A7
:102F900084330008842E0008992C001000B583B0FB
:102FA000FFF7AEFD03210A4805F0F0FF01220DF105
:102FB0000701084808F0A0FC0028F1D19DF807306F
:102FC0000D2BEDD104480DF0F9FD03B05DF804FBC5
:102FD0008C3300089C4300085443011010B5084C82
:102FE000204606F077F80021204606F094F8FFF717
:102FF000D5FF0121204606F08EF8002010BD00BF4D
:103000008C330008000000000230800803D001303B
:103010000238FCD100BF00BF7047EFF3108072B6DA
:10302000704780F310887047B0F1FF3F22D008B39B
:1030300038B5C50E43011B1A65F10005AD0045EA20
:1030400093759B00181845F10005ED0045EA507591
:10305000C4004FF47A720023204629460CF0C4FBCA
:103060006FF47A73A34240F2E733AB4101D26FF0C1
:10307000010038BD70470000034B0360034B0B6039
:1030800080231360704700BFCC3C0008CC3600089A
:10309000034B0360034B0B604FF480731360704766
:1030A0009C3D0008CC38000830B583B005460023AD
:1030B00001931C4B1B68C3B11A4B1B689BB1FFF7F4
:1030C000ACFF044604F0C6FA50B14FF47A7005FB29
:1030D00000F01549A1FB00318D09B0F57A7F0ED2C1
:1030E0002046FFF79EFF03B030BD104807F08CF874
:1030F00018B90C4B0D4A1A60DEE701BEDCE701236C
:1031000001AA29460748006807F03CFC0028E7D1DF
:10311000019BAB4200D901BE0198FFF785FF03F088
:103120001DFFDDE7B4360008D34D6210B836000845
:1031300080B110B50446017131B1042003F059FC8F
:10314000206028B1002010BD012003F052FCF7E7F9
:103150000148F8E70148704701000E0605000E0619
:1031600098B110B504460846FFF75EFF0146237983
:103170002BB1206803F03AFD28B1002010BD206873
:1031800003F063FCF8E70248F8E70248704700BF25
:1031900000000E0605000E0688B108B503792BB1B4
:1031A000006803F031FC40B1002008BD00231A463E
:1031B0001946006803F04CFBF5E70248F5E70248C2
:1031C000704700BF02000E0605000E062DE9F0470D
:1031D000B1F834C0BCF1020F01D84FF0030CCD6A36
:1031E00005F00303012B01D0BDE8F0874C682246AF
:1031F0004FF0000E734601E00A320133634504D2FA
:1032000096887645F8D9B646F6E700264FF6FF7A57
:10321000B146334605E098460CE000270FE00A343B
:103220000133634514D2A2887245F8D1002BF2D045
:1032300034F8068C0CF1FF379F42EED9E7894244FF
:103240003A449145EBD2A7EB08069A469146E6E749
:103250004FF6FF739A4520D0B9F1000F1DD00B8EA9
:103260001B0215F4807513D10CF1FF3CB3FBFCFC81
:1032700006FB0CF393FBF9F30AFB0C551D440123E9
:10328000037105F17F030268C3F30F231380ABE7DB
:10329000B3FBFCFC4FEA5C05EAE700230371A3E7FC
:1032A00038B5044602F01AFD054608B1284638BD77
:1032B000204601F01CFC204602F0BEFC054363687A
:1032C000DB79002BF2D1204602F028FD6368012251
:1032D000DA71EBE770B50546FFF7E2FF064620B16D
:1032E000284601F07AFB304670BD284601F0EEFF1B
:1032F0000643284601F0FAFE0643284601F093FDF6
:1033000006432B681968094BA3FB01310522890C80
:10331000074802F0C2F90446284601F088FD00285B
:10332000DED0002CDCD0013CF6E700BF83DE1B437F
:1033300040420F0070B50C460B689B7B83420CD952
:10334000CA68742300FB03F3D618D35893F82C30C3
:1033500013F0020F1DD1002500E00125D5B996F824
:103360007230012B04D0022B0BD045F0010511E087
:10337000214601F036FC05432146304601F049FD67
:1033800008E0214601F0E8FB0543304601F0BCFCB3
:1033900000E00825284670BD70B5064603689B7B93
:1033A000002505E031462046FFF7C4FF05432346CC
:1033B0005C1E002BF6D1284670BD08B50368587D09
:1033C0000AF08EFF08BD000008B54068012903D04F
:1033D00008290ED0002008BD03689B6D1B78022BC6
:1033E00001D00020F7E701F022FD0028F3D00648C5
:1033F000F1E703689B6D1B78022B01D00020EAE700
:10340000FFF7DBFF0020E6E7FF00420038B5036866
:103410009D6D5C6D2B780BB1082038BDC4F8F83079
:1034200003685B6D0822C3F8402303681968134BD7
:10343000A3FB01310522890C42F2107002F02DF934
:1034400001E0013870B1D4F8403313F0010FF8D126
:10345000D4F8843013F0071302D12BB10820DCE735
:103460000138EFE7064BF8E72A460221204608F02C
:1034700039FC0028D1D00820CFE700BF83DE1B43F2
:103480000200060110B578B1836800221A705A70E4
:103490005A619A611A62DA61FFF7B8FF044619208F
:1034A0000AF01EFF204610BD0124FBE771B17AB17E
:1034B000012803D0022805D001207047926851618D
:1034C000002070479268916100207047012070478A
:1034D000012070472DE9F0430568B5F806E00024A7
:1034E0000CB1BDE8F0830368234493F824C0476817
:1034F00013689E8904FB06F606EB860607EB460377
:1035000037F81690E046264601E00A33013690F877
:103510003670B74206D91F7A4745F6D2B3F8009005
:10352000B846F2E7642303FB09F9B9FBFEF99944B5
:1035300009FB08F8B8FBF1F8C44500D3C4462B19C1
:1035400083F824C043681668B68904FB06F606EBC8
:10355000860603EB460627460BE0A3EB080332334F
:10356000DFF84080A8FB0383C3F3471333720A36A6
:10357000013790F83630BB4212D933884FF06408D7
:1035800008FB03F3B3FBFEF3434496F8088008FB03
:1035900003F301FB0CF89845DFD900233372E6E70B
:1035A00001349DE71F85EB512DE9F0438446C56941
:1035B0006F6897F82760B14600247F23A646E4B1E0
:1035C000002E3FD0DCF8002092F88510994237D9C0
:1035D000331D02EBC3039B68F11C02EBC10292682E
:1035E000B3FBF2F303FB0EFEBEF17E0F2DD8013EBE
:1035F00087F827604FF0010924E03A1992F8241067
:103600008E4500D28E468B4200D81946224600E0F5
:1036100001322B68B3F8348090450ED95868DCF835
:1036200000309B8904FB032303EB830300EB43037C
:103630001B7A9942ECD91946EAE701340B46BEE7FA
:103640004FF000094846BDE8F0834FF00009F9E764
:1036500003685B6D4FF48372C3F8F02003685B6D01
:10366000D3F8F0200222C3F8F820826803685B6D6B
:10367000D26AC3F8802203685A6D0023C2F8B032C0
:103680000268526DC2F8B432826803685B6D126DD5
:10369000C3F88822826803685B6DD26BC3F8F0219F
:1036A000826803685B6D926DC3F8802103685A6D70
:1036B000D2F8003243F05063C2F8003203685B6D09
:1036C00040F20132C3F840237047000010B4C369D0
:1036D0001A6892F83610DA8B914235D95A68597ABD
:1036E0000A4492F824C001685A6892F827200432EC
:1036F00001EBC202526842EA0C0C4C6DD4F8002473
:1037000022F0707222F07F0212490CEA01010A4392
:10371000C4F800249A69147A02685B6893F8273029
:10372000043302EBC30359682143506DD0F80035D0
:1037300023F0F86323F07F03074A0A401343C0F8DD
:1037400000355DF8044B70475A68597A0A4492F87C
:1037500028C0C8E77F00C0037F00C00701238B405B
:10376000844608B94FF0010C053A012A09D90F29FE
:103770000AD800229B1AB3FBFCF0634500D201205B
:1037800070474FEA4C0CF2E71D22F3E710B4C16911
:103790004C6894F8233023F080020B6893F836C00D
:1037A000CB8B9C4511D8638A511F01290FD9002169
:1037B00003B90123013B43EA02430B430268526D04
:1037C000C2F800325DF8044B7047238AECE75B08CF
:1037D0004FF00071ECE710B50446C2695368188ACF
:1037E000116891F83610D28B914200D8588A93F81C
:1037F000232002F07F029988FFF7B0FF23685B6DFA
:1038000080B2C3F8140310BD08B50B23062201795A
:10381000006801F032FE08BD2DE9F0410646D0F8FF
:103820001C80D8F80C703D68002405E0314628461D
:10383000FFF7EAFF083501347B79A342F6D801236C
:1038400088F82230BDE8F08110B504468A68137A02
:1038500052680179006801F010FE2179206808F0B3
:103860008DFB10BD2DE9F0410646D0F81C80D8F83C
:103870000C703D68002405E031462846FFF7E4FF60
:10388000083501347B79A342F6D8002388F822302A
:10389000BDE8F08108B5C36993F82230012B00D050
:1038A00008BDFFF7DFFFFBE710B504460068002303
:1038B0001A4690F86C10C06D01F0DFFD23685B6D57
:1038C0000022C3F8A8222046FFF7E4FF10BD38B558
:1038D00005460C46012001F0A8FB2046FFF7DAFF61
:1038E00022460021284601F0BDFD2046FFF773FF68
:1038F0002046FFF74BFF38BD70B505460E4614460F
:103900001146012001F091FB2046FFF7C3FF22463C
:103910003146284601F0A6FD2046FFF7D7FE204697
:10392000FFF759FF2046FFF731FF2046FFF774FFEE
:1039300070BD2DE9F84306464FF0000811E031460E
:103940002868FFF781FF01346B79A342F7D8083567
:1039500009F10109BB8E4B4501D90024F4E708F1B8
:10396000010833689B7B43450BD9F768742303FB3D
:10397000087797F87230012BF1D1BD684FF000093C
:10398000E8E7BDE8F883000070B50446FFF7D1FF13
:10399000204601F0EEFD23685B6D0025C3F88051E1
:1039A00023685B6DC3F8005323685B6D4FF480326E
:1039B000C3F80422A26823685B6DD26EC3F8D022DC
:1039C00023685B6DC3F8F450A26823685B6D526C8A
:1039D000C3F8C02223685B6DC3F8205323685B6D76
:1039E000C3F8885223685B6DC3F8B05223685B6DDF
:1039F000C3F8B452A26823685B6DD26CC3F89022FE
:103A0000A26823685B6DD26AC3F88022A26823682B
:103A10005B6D926BC3F89422FFF7FFFA06462368AA
:103A20002A4693F86C10D86D08F0B8FA236804227F
:103A300093F86C10D86D08F0F9F93046FFF7F1FAF9
:103A4000A26823685B6DD26BC3F8F021236893F8FA
:103A500087205B6DC3F81023A26823685B6D526EEC
:103A6000C3F8A022A26823685B6D526FC3F8A82236
:103A7000A26823685B6D926CC3F8842123685B6D38
:103A80004FF08072C3F88422A26823685B6D926E47
:103A9000C3F8A422A26823685B6D126FC3F8882163
:103AA000A26823685B6DD26DC3F80024A268236806
:103AB0005B6D126EC3F80025A26823685B6D926A85
:103AC0001A606368187D2146013801F0C4FDA068C2
:103AD0002346027A2946406801F0F3FCA368024AB3
:103AE0005A62E3695D7270BD6D400010C0EB003238
:103AF000012303FA01F101398A4207D9C0EB002002
:103B0000814201D20020704705207047062070478F
:103B100038B5046894F92330002B00DB38BD258AC2
:103B20000022A1882846FFF719FE0146284601F029
:103B300001FC034628B9208AA1884000FFF7D6FF80
:103B4000034663F07F0384F82330E7E7F8B50446C3
:103B5000FFF763FA0546236893F86C10D86D08F0F8
:103B6000D7F906462368002293F86C10D86D08F048
:103B70005DF92846FFF755FAFFF74FFA0546236827
:103B800093F86C10D86D08F02DFA0746236893F867
:103B90006C10D86D08F0F2F92368062293F86C10C7
:103BA000D86D08F0FBF92846FFF73BFA01200AF030
:103BB00097FBFFF732FA054623683A4693F86C10F4
:103BC000D86D08F0EBF92368324693F86C10D86D85
:103BD00008F02CF92846FFF724FAF8BD10B5044682
:103BE00003685A6D0023C2F8F8300268526DD2F8AB
:103BF000F8108168496DC2F880110268526D012188
:103C0000C2F88C1181680268526D096CC2F8F0111B
:103C10000268526DC2F8B0320268526DC2F8B43216
:103C2000826803685B6D126BC3F8802203685B6D6A
:103C30000622C3F8882203685B6D0322C3F8402381
:103C400003681968094BA3FB01310522890C44F272
:103C5000506001F022FD214601F028FD20B92368C3
:103C60005B6D0822C3F8402310BD00BF83DE1B43F9
:103C700010B5044683685B690BB1C069984720465C
:103C8000FFF7ACFF2046FFF7E3FC10BD70B505461B
:103C9000C4690026667223685A68E38B03EB8303CA
:103CA00002EB4303A36101F039F926722846FFF7BE
:103CB000DFFF70BD2DE9F04F87B082461546804B7F
:103CC0001B68ADF814301A0C8DF81620ADF81030C2
:103CD0008DF81220EA68742303FB00F3D0180090DB
:103CE000D3580193DB8801FB03F7764BA3FB07371F
:103CF0007F094FF0000B7FE0019B03F1280404AB28
:103D000003938DE04021A1542B689B8902FB03F3B0
:103D100003EB830306EB43031972013281E02A6847
:103D2000928903FB02F202EB820206EB420209785F
:103D300011720133CBB92A68928903FB02F202EBBC
:103D4000820236F81220BA4203D2E25C22EA08026A
:103D5000E254E118E25C42EA5802E254002ADED161
:103D60000122E254DBE70346E4E75FEA58081DD08E
:103D70002A4659465046FFF7BFFD2846FFF7E6FEA4
:103D80002846FFF783FF2B6819684F4BA3FB0131CF
:103D90000522890C484601F080FC6B689B6813F093
:103DA0008003C7D00028DED00138F6E7002303984F
:103DB000CBB12A4659465046FFF79EFD2846FFF7ED
:103DC00065FF2B681968404BA3FB01310522890C64
:103DD000484601F062FC6B689B6813F0800F09D0C5
:103DE00040B10138F7E7C15CE25C914200D2C254B5
:103DF0000133DDE70BF1010B009B9B8E5B454ED938
:103E0000009A56680BEB8B0306EB430692F83630AC
:103E10005B457FF671AF019B03F1240405AB03936F
:103E20000022002A3FF46EAF6B68187D00B90120B4
:103E3000019BD988A0FB0110430143EAD1634FEAFB
:103E4000411CBCEB010C63EB00035A0242EADC525A
:103E50004FEA4C235B1840EB02024FEA821C4CEA0B
:103E6000936C4FEA8318B8EB03036CEB020213EB7D
:103E7000010840EB02092B685B6802931A46002395
:103E8000404649460BF0B0FC029B984579F100038F
:103E900000D2012000EB40094FF0400868E7002302
:103EA00013B107B0BDE8F08F03F118026A4412F8AD
:103EB000041C019A1A4482F824100133F0E700BF71
:103EC0007C4501101F85EB5183DE1B4310B5044672
:103ED0000146002001F07EFA2046FFF7F7FB20465E
:103EE000FFF79AFCE269137A43F00103137220464C
:103EF00001F014F82046FFF7BBFE10BD2DE9F04796
:103F000005460E46144613689A7B824277D90020F4
:103F1000D4F80C80742705FB07F708EB070999F81C
:103F20007220012A00D001206268926812F0800F8E
:103F30006ED100286DD158F8072093F8823082F8AE
:103F40002730224631462846FFF7B4FE2046FFF7C9
:103F50002BFB0028F5D1224631464846FFF7BAFA36
:103F600021462846FFF7B3FC2046FFF7AFFF636802
:103F70001A7D02B90122B9F8343058F80710C988FF
:103F800003FB01F1A2FB0121480140EAD260530189
:103F90009B1A60EB0100400240EAD3505B029B1881
:103FA00041EB00004FEA801C4CEA936C9F01FB1A26
:103FB0006CEB00009F1841EB0008D4F80090D9F892
:103FC00004A052460023384641460BF00DFC5745ED
:103FD00078F1000300D20120D9F800100E4BA3FBAA
:103FE00001310522890C00EB400001F056FB6268AC
:103FF000926812F0800F04D018B10138F7E7012061
:1040000086E7234601223146284601F05BFB00E0AB
:104010000820BDE8F08700BF83DE1B4310B50446CF
:10402000C369D88B01301A68928E824207D81B7AF6
:1040300013F0020F16D0204601F033F810BD2146D0
:1040400001F0C8F92046FFF7C6FB2046FFF79EFBAC
:104050002046FFF7E1FB2046FFF738FB2046FFF73D
:1040600007FEEBE7204600F05FFFE7E710B50446E8
:10407000C16903685B6D4FF48372C3F8F020036875
:104080005B6DD3F8F0200022C3F888224B689A8831
:1040900001239340013B0268526DD2F8D02092B2C6
:1040A000934200D313468A6913800B7A1BB92046CA
:1040B00000F03AFF10BD2046FFF7D4FB2046FFF783
:1040C000ADFFF7E7CB695B681A8A02B9012293F862
:1040D0002300064B03EA0043013A134343F05063C5
:1040E0000A68526DC2F80032704700BF00007FFFBF
:1040F00010B50446826803685B6D926F1A600368AE
:104100005B6D0122C3F8802103685B6D1122C3F847
:10411000802203685B6D4FF08072C3F884220368CD
:104120005B6D0022C3F8C02203685B6D0622C3F8F2
:10413000882203685B6D3A4AC3F8B02203685B6D5E
:1041400041F21012C3F8B422826803685B6DD2F8A2
:104150008420C3F8F02103685B6D40F20332C3F89A
:104160004023036819682F4BA3FB01310522890CFA
:1041700040F6B83001F091FA00E0013823685B6D39
:10418000D3F8402312F0010F01D00028F5D1D3F865
:10419000402312F0010F03D04FF44272C3F84023C2
:1041A000A26823685B6DD26F1A6023685B6D40F272
:1041B0000132C3F88C212368596D0023C1F8803186
:1041C0002168496DC1F880322168496DC1F8843297
:1041D0002168496DC1F8C0322168496DC1F8883243
:1041E00023685B6D1049C3F8B01223685B6D42F21F
:1041F0001021C3F8B412A16823685B6DD1F8881050
:10420000C3F8F01123685B6D4FF48371C3F8F010AD
:1042100023685B6DD3F8F010C3F8402310BD00BFD6
:104220000101010083DE1B430103030010B50446B6
:1042300001F09FF9206800231A4690F86F10406E35
:1042400001F01BF9206800231A4690F87010806E68
:1042500001F013F923685B6D4FF48372C3F8F0200B
:1042600023685B6D0222C3F8F82023685A6D00238F
:10427000C2F8F4302268526DC2F88031A168226819
:10428000526DD1F88C10C2F88411A1682268526D69
:10429000D1F89010C2F888112268526D4FF4407125
:1042A000C2F88C112268526D4149C2F8001422688C
:1042B000526DC2F80035A1682268526DD1F88010A5
:1042C000C2F8F0112268526DC2F804322268526DB1
:1042D000C2F880322268526DC2F884322268526D70
:1042E000C2F88832A1682268526DD1F89410C2F8E1
:1042F00090122268526DC2F894322268526D2321C6
:10430000C2F8A012A1682268526DD1F89810C2F8C4
:10431000A412A1682268526DD1F89C10C2F8A812AC
:104320002268526D2349C2F8B0122268526D42F2DF
:104330001021C2F8B4122268526DC2F8C03222684D
:10434000526DC2F80033226892F89010526DC2F894
:1043500010132268526DC2F814332268526DC2F8ED
:10436000203323685B6D4FF44272C3F84023A26888
:1043700023685B6D926F1A6023685B6D1F22C3F820
:10438000D0226368587D00B901202146013801F030
:1043900062F9A0682346027C0021C06801F091F810
:1043A000A368054A5A62E36900225A7210BD00BF31
:1043B000800E0F0101030300D94800102DE9F04FD2
:1043C00085B007460291144613689A7B824206D94B
:1043D00093F88E30002B7AD04FF0000801E04FF0B8
:1043E0000108D4F80CE04FF0740C0CFB07FC0EEB4A
:1043F0000C0B9BF87230022B01D04FF00108636860
:104400009B6813F0800F40F0D380B8F1000F40F0AC
:10441000DA80DBF80410BBF834502369C7EBC7021D
:1044200003EBC203DE88029B03FB06F67A4BA3FB79
:10443000063676094246002A68D063685A7D5EF8DF
:104440000C100B8A02B9012203B90123B1F80490C0
:10445000A5FB099102FB03F3A3FB09394FEA4911BC
:1044600041EAD3615A01D21A61EB0901490241EADA
:10447000D2515202D21849EB0101880140EA926000
:104480004FEA821ABAEB020260EB010112EB030A57
:1044900049EB010923685B6801931A4600235046E3
:1044A00049460BF0A1F9019B9A4579F1000300D22E
:1044B000012000EB400303934FF020094FF0400A26
:1044C0004A46A946CDF80480984615462BE04FF0A1
:1044D000010886E723689B8902FB030303EB830340
:1044E0005B004FF0000921F8039023689B8902FBD1
:1044F000030303EB830301EB43034FF0400983F80D
:1045000008900130A842E5D3013294E71046F9E75C
:10451000DBF804100198002843D0C5F34703AA46EE
:10452000002D42D01D462146384600F010FD2046A1
:1045300000F03EFD23681968384BA3FB01310522CA
:10454000890C404601F0A9F863689B6813F0800F5E
:10455000DED00028DCD00138F6E723689B8900FB19
:10456000032303EB830301EB430393F808C045EAFD
:104570000C0C83F808C001324A4514D223689B8989
:1045800000FB032303EB830301EB430C31F81330EF
:10459000B342E2D99CF8083023EA0A038CF80830C9
:1045A000DBE70246E8E70130B5E7DDF8048003E029
:1045B000002303934FF00808B8F1000F06D04046DF
:1045C00005B0BDE8F08F00230393F5E72146384698
:1045D00000F0BDFC204600F0EBFC236819680F4B8F
:1045E000A3FB01310522890C039801F056F863689A
:1045F0009B6813F0800F04D008B10138F7E74FF043
:104600000408B8F1000FDAD1234602220299384695
:1046100001F058F88046D2E71F85EB5183DE1B433B
:104620000168C269536893F82730043301EBC30370
:10463000586893691B7A03F07F030343024A1A43C5
:104640004B6DC3F800247047800E0F0110B504466F
:10465000FFF7E6FF23685B6D4FF48372C3F8F02029
:1046600023685B6DD3F8F0200222C3F8F820A3681A
:104670005B690BB1E06998472046FFF739FD10BD33
:1046800008B5042300220179006800F0F6FE08BD99
:1046900008B50A2306220179006800F0EEFE08BD85
:1046A00010B504468A68137CD2680179006800F06E
:1046B000E4FE2179206807F061FC10BD10B50446C6
:1046C0008A68137CD2680179006800F0D6FE2179EF
:1046D000206807F053FC10BD70B50646C3695B69DE
:1046E0001C685B7905E031462046FFF7D1FF0834AE
:1046F0002B465D1E002BF6D1F369012283F82220A0
:1047000070BD70B50646C3691B691C685B7905E01E
:1047100031462046FFF7B4FF08342B465D1E002BC0
:10472000F6D1F369012283F8222070BD10B504464A
:104730000146002000F04EFEE269137A43F00103C7
:1047400013722046FFF7C8FF2046FFF7DAFF204626
:1047500000F0E4FB2046FFF779FF10BD70B5064678
:10476000C3695B691C685B7905E031462046FFF749
:10477000A5FF08342B465D1E002BF6D170BD70B529
:104780000646C3691B691C685B7905E03146204613
:10479000FFF786FF08342B465D1E002BF6D170BD57
:1047A000C36993F82230012B00D0704710B504463E
:1047B000FFF7D4FF2046FFF7E2FFE369002283F80A
:1047C000222010BD10B50446FFF7EAFF2068002341
:1047D0001A4690F86F10406E00F04FFE20680023DC
:1047E0001A4690F87010806E00F047FE10BD38B584
:1047F00005460C46022000F018FC2046FFF7D0FFCB
:1048000022460021284600F02DFEE3695B68998866
:1048100023685B6DC3F81413E3695A68138A023B7B
:1048200013FB01F3D38021460020FFF74BFC38BD7A
:1048300038B50546C4690023637223685B68E28B60
:1048400002EB820103EB4103A3610132E2830A33ED
:10485000A361E37A013BDBB2E37203BBA37A013BC2
:10486000DBB2A3723BB3FFF78AFF236908332361EE
:104870002846FFF746FF226892F83730E3729368C4
:1048800092F8362003EBC20363612846FFF724FF4A
:104890002846FFF7C5FE2846FFF7D8FE38BD6369F6
:1048A00008336361FFF718FF2846FFF7B9FE284673
:1048B000FFF7CCFEF2E7FFF762FF002384F8223017
:1048C000237A13F0020F03D0284600F0EAFBE5E755
:1048D000284600F029FBE1E710B50446C1694B68A2
:1048E000DB889C460268526D0020C2F8F8002268FE
:1048F000526D4FF48370C2F8F0002268506DD0F80A
:10490000F020D0F8D020D0F8D40080B210FA82F293
:10491000934200D394468A69A3EB0C0313800B7A6D
:104920009BB9204600F000FBA26823685B6D926F84
:104930001A6023685B6D4FF44072C3F88C212368C2
:104940005B6D054AC3F8002410BD2046FFF706FF43
:104950002046FFF76DFFF7E7800E0F0110B50468E2
:1049600094F92330002B00DB10BDA188208A00F0D1
:10497000E1FC60F07F0084F82300F5E70020704739
:104980000023437202884280C3717047F8B507461E
:104990000D461646002404B1F8BDF368742202FBEC
:1049A00007335B6805EB850003EB4000FFF7E8FF8A
:1049B0000134F0E770B505460E46CB68742202FB61
:1049C00000339B8E05E0324621462846FFF7DEFF86
:1049D00023465C1E002BF6D170BD38B50546036832
:1049E0009B7B04E029462046FFF7E4FF23465C1E3C
:1049F000002BF7D138BDC2F5807301FB03F300FB38
:104A00000230000A7047F8B505460C461F46FFF70E
:104A1000B5FF064640BB20886388984201D3002238
:104A2000E271EA8B024493420BD9E37999B2EA89A5
:104A3000914202D20133E37116E02046FFF7A0FF56
:104A400012E03A68927E1AB9AA8B1A4490420BD8A7
:104A5000617A95F82B2041EA03210002FFF7CBFF92
:104A6000C0F30F23638060723046F8BD38B5CB6861
:104A7000742202FB00F01C181D586368A28E95F882
:104A80002C1021F0070185F82C10114605E09979CA
:104A900021F0030199710A330146481E0029F6D11D
:104AA00094F87330013B042B09D8DFE803F00317B7
:104AB0001703170095F82210606A0BF08FFA94F82C
:104AC0007330023B032B08D8002385F8343094F868
:104AD0006C3013B1A36B00221A7138BD94F8723098
:104AE000012BECD1636A95F822201A70E7E738B5FC
:104AF000054603689B7B04E029462046FFF7B6FF86
:104B000023465C1E002BF7D138BD10B582B0044699
:104B1000084613466289ADF80020628869460AF0AB
:104B20001BFDBDF8003063819DF80230A3839DF822
:104B30000330E3839DF80430238402B010BD0023CA
:104B40008B800A88B1F802C0838B63449A4202D9F1
:104B5000A2EB0C028A8070472DE9F84F8A46CD6897
:104B6000742303FB00554FF00008C346C14632E0F2
:104B70006C68DAF800309E890BFB06F303EB8302C6
:104B800004EB42042E6906EB4306B5F8703003F4DB
:104B90004073B3F5007F01D05F4603E0D5F81C8079
:104BA000FAE70137AB8EBB4213D953463246214652
:104BB0002868FFF728FF49EA000921462868FFF71F
:104BC000BEFF0A340236B8F1000FEAD008F101083E
:104BD000E7E70BF1010BBBF1000FC9D04846BDE878
:104BE000F88F2DE9F04F83B08B46CC68742303FB1C
:104BF000004467694FF00009CDF80490CA4642E0CE
:104C00006568DBF80030B3F80C80019B03FB08F803
:104C100008EB880305EB4305236903EB4808B4F868
:104C2000703003F44073B3F5007F01D0019E03E0C0
:104C3000D4F81C90FAE70136A38EB34220D923683A
:104C40003A46598828880AF0AAFC32463946206834
:104C5000FFF75BFF0C375B46424629462068FFF7AB
:104C6000D2FE4AEA000A29462068FFF768FF0A35A3
:104C700008F10208B9F1000FDDD009F10109DAE706
:104C8000019B01330193019B002BB9D0504603B027
:104C9000BDE8F08F30B4426A4368046894F82C1081
:104CA00021F0010184F82C104FF0000C07E061891D
:104CB000258C491B0CE00A3301320CF1010C818E6A
:104CC00061451FD999790029F1D16189258C294441
:104CD00015780DB1013D15709D888D4204D894F86A
:104CE0002210117000219971117809B9012199716F
:104CF00099790029DFD094F82C1041F0010184F853
:104D00002C10D8E730BC704708B590F87330012BF1
:104D100002D0042B00D008BDFFF7BCFFFBE7F0B5C5
:104D200089B00546D0F824E043680768868E02AA59
:104D3000009200228DF8042097F82C2012F0010F29
:104D40000CD1B7F80AC03A8C94449EF8002012B1F6
:104D5000013A8EF80020344600210AE0B7F80AC074
:104D60003A8CACEB020CF0E700229A7111430A3343
:104D70000446601E24B19A886245F5D90122F4E701
:104D800049B997F822308EF8003097F82C3023F08C
:104D9000010387F82C309EF80030A3B997F82C3027
:104DA00043F0010387F82C3097F82C3013F0010FF3
:104DB00003D095F87330022B11D02B689DF8042096
:104DC00083F834201FE00029EED06B6803E0002157
:104DD00099710A331646721E002EF8D1E4E729466F
:104DE0006846FEF7F3F9E8E7009A02EBC40C2B687B
:104DF0001B6B03EBC40152F83400DCF8042043F8C9
:104E000034004A6001349DF80430A342ECD809B064
:104E1000F0BD08B590F87330023B012B00D908BDF6
:104E2000FFF77DFFFBE708B500F0DFF808BD08B528
:104E300000F06FF808BD08B5002000F051F908BD7A
:104E4000836800221A7282681378022B06D0042B22
:104E500007D0012B0BD00023536070470023536011
:104E600070470A231372836806225A60704706232C
:104E700053607047836800221A7482685378022B4B
:104E800006D0052B0AD0012B05D0002353607047B4
:104E90000023D36070470623D36070470523137443
:104EA00083680022DA6070478AB370B506460C4604
:104EB0001546D369002283F82120012903D001205F
:104EC000022C14D070BD431E012B03D9042801D03D
:104ED0000846F5E7AB681978F2B2914201D100209B
:104EE000EEE71A702846FFF7ABFF0020E8E7731ED5
:104EF000012BE7D8AB685A78F0B2824201D100208A
:104F0000E0E758702846FFF7B5FF0020DAE70120F8
:104F100070474368986800F0800070474268936863
:104F200043F080039360704708B54268936823F0AC
:104F300080039360C36900221A7242689388013328
:104F4000938083689B690BB1C069984708BD38B5E9
:104F500005460C460846FFF76AFF802822D02368E2
:104F60009B7BAB4220D9E268742305FB03F3D11885
:104F7000D35893F82C3013F0020F17D191F87230F8
:104F8000012B03D0022B07D000200EE0214628463B
:104F9000FEF79DFC002008E021462846FFF727FC8D
:104FA000002002E0082000E0012038BD0120FCE7DD
:104FB00010B50446FFF73BFF802814D0E3691B6857
:104FC00093F87230012B04D0022B07D04FF0004031
:104FD00010BD2046FEF77AFF0020F9E72046FFF7D4
:104FE000A5FB0020F4E70820F2E770B50546C66986
:104FF000FFF71DFF802816D04FF0004200242B68D9
:105000009B7BA3420DD929462046FFF7A0FF02460D
:1050100008B10134F3E7022333722846FFF7C8FFD3
:105020000246104670BD0822FBE738B5CB6993F8FD
:105030002130834231D005460C460B689B6D1B78AE
:10504000022B01D0022038BD0846FFF7F0FE30BB2E
:10505000E36993F82130012B0DD0022B0FD0E369C7
:1050600083F82150E36993F82130012B0BD0022BF8
:105070000ED00020E7E72046FEF716FCEFE72046BB
:10508000FFF7A0FBEBE72046FEF77EFC0020DAE707
:105090002046FFF7CBF80020D5E70020D3E7032018
:1050A000D1E770B50446C36993F82050013501E09B
:1050B0000135A6B123689B7BAB420DD96368002202
:1050C0009A6021462846FFF742FF06460028EFD1A6
:1050D0002046FFF76DFFECE72046FFF725FF70BD88
:1050E00008B508468B685B6A984708BD70B50546E9
:1050F0000026344600E0013429688B7BA3420FD997
:10510000EB68742202FB043393F87230022BF2D165
:105110002A4691F88B102046FFF750F90643EAE73C
:10512000304670BD2DE9F04788B080460E46CA680B
:10513000742303FB00F3D718D55895F823A00B6808
:105140005A684B681B7DB2FBF3F35B49A1FB03215B
:1051500089095A4AA2FB0302D2095948834201D263
:105160004FF47A6202F2E7325348A0FB02024FEAA0
:10517000921912F0400F01D009F10109ADF81A108F
:105180003268B2F87820ADF81420B268B2F8A420E2
:10519000ADF816202A4632F8021BADF8181004921A
:1051A0000C22AA8040F6FF72EA80002485F8234092
:1051B00002F1B25202F5F41202F68272A2FB03234C
:1051C0005B0C2B826B823368324693F87F1040462B
:1051D000FEF794FE7A682046A446234601E00A3290
:1051E000013397F83610994206D9117A8142F6D9DF
:1051F000B2F800C00846F2E795F824308DF81E306A
:105200008DF81F00336895F82720043203EBC203A2
:105210009B68029305F1100403944FF47A7303FB27
:105220000CF3284AA2FB03129B1A02EB5303C3F3AD
:10523000CF23ADF81C3001A80AF0F8F901902B8AB1
:105240004B4501D2A5F810901F4B984230D84FF033
:1052500000093368324693F87F104046FEF74EFE51
:10526000336895F82720043203EBC2039B6802934E
:1052700095F824308DF81E30039401A80AF010FA36
:1052800080B2A880012383409BB2013BEB8085F86C
:1052900023A03846FEF73CFC3368324693F87F1073
:1052A0004046FEF72BFE49EA000008B0BDE8F08753
:1052B0004FF00209CDE700BFD34D6210F11976051A
:1052C00000366E0101011000880D010070B5054621
:1052D0000024264600E001342B689B7BA3420DD9B5
:1052E000EB68742202FB043393F87230012BF2D185
:1052F00029462046FFF716FF0643ECE7304670BD0F
:1053000070B50646C468002504E02046FEF700FCA0
:105310007434013533689B7BAB4209D994F8723001
:10532000012BF2D0022BF3D12046FFF717FBEFE75A
:1053300070BD00009F283BD940F2FE3399420DD941
:1053400003F5800303F60743A3FB0123CA1A03EB0B
:1053500052035B0AC3EB832399422BD0B1F5FF7F45
:105360000AD9194BA3FB0123CA1A03EB52031B0AE8
:10537000C3EB432399421FD07E290AD9134BA3FBC9
:105380000123CA1A03EB52039B09C3EBC3139942CF
:1053900014D03E2914D90E4BA3FB0123CA1A03EBE8
:1053A00052035B09C3EB831399420BD00020704773
:1053B0000020704704207047032070470220704788
:1053C000002070470120704721408000110804022E
:1053D00005411004CA6900235372CB6993F8213048
:1053E000012B02D0022B10D07047D08311688B683C
:1053F00003EBC003D3604B6800EB800003EB40007D
:105400009061002382F82230704710B5D083136872
:10541000596800EB800401EB44019161002182F89E
:10542000221093F8371093F836C082F80AC0D17270
:105430009C68B0FBF1FE04EBCE0414619B6801FB99
:105440001E00604403EBC000506110BDCB6983F8BF
:105450002000CA68742101FB00F01118196012586D
:105460005A60704738B50D4614461146FFF7EEFFF7
:1054700021462846FFF7AEFF38BD2DE9F04104462E
:105480000D4690461E46FDF7C8FD074676B93246E2
:105490002946204606F0CAFC42462946204606F028
:1054A0007DFD3846FDF7BDFDBDE8F0814246294649
:1054B000204606F073FD32462946204606F0B6FC2B
:1054C000EFE72DE9F8438146884617461E465C699A
:1054D000002505E02179206806F050FD08340135EB
:1054E0003368B3F80AC0AC450DD93B464A4621792A
:1054F0002068FFF7C2FFB8F1000FEBD021792068D8
:1055000006F034FDEAE7BDE8F88310B5044600680C
:1055100000231A4690F86C10C06DFFF7AEFF2068AC
:1055200000231A4690F86F10406EFFF7A6FF206820
:1055300000231A4690F87010806EFFF79EFF10BD92
:105540002DE9F04104460D4690461F46FDF765FDE6
:1055500006462946204606F045FDC8F800002946C3
:10556000204606F0D5FC38703046FDF75AFDBDE800
:10557000F08130B587B00446002505958DF81350AD
:10558000039502958DF807508DF8065000680DF1CF
:10559000130305AA90F86C10C06DFFF7D1FF2068C7
:1055A0002B46062290F86C10C06DFFF766FF23684B
:1055B00093F86C10D86D06F0E1FC20680DF107033C
:1055C00003AA90F86F10406EFFF7BAFF20682B46D1
:1055D000062290F86F10406EFFF74FFF236893F894
:1055E0006F10586E06F0CAFC20680DF1060302AA7F
:1055F00090F87010806EFFF7A3FF20682B460622FC
:1056000090F87010806EFFF738FF236893F87010E1
:10561000986E06F0B3FC012008F062FE20689DF849
:105620001330059A90F86C10C06DFFF726FF2068C4
:105630009DF80730039A90F86F10406EFFF71DFF3A
:1056400020689DF80630029A90F87010806EFFF77F
:1056500014FF07B030BD70B506460B681D7DDC7CBD
:10566000012C03D0022C01D004B10324294620468A
:1056700007F062FE012C0AD9002332462946204653
:1056800007F032FD2946204607F014FE70BD324671
:105690002946204607F0C4FCF4E722B101FB00F0E4
:1056A000B0FBF2F070474FF0FF30704700E0013878
:1056B0000B685B6DD3F8403313F0010F01D0002865
:1056C000F5D17047F0B5DD68742404FB00556E68B1
:1056D000012A21D01A69C0EBC00002EBC000C288C9
:1056E000186890F88F000446884222D2A1EB000E81
:1056F0000C44642C00D964240EFB02FE1B49A1FB60
:105700000E0E4FEA5E1E02FB04F4A1FB04246409A2
:1057100000273846F7B1F0BD1A69C0EBC00002EBB4
:10572000C002908801228240013A186890F88400F3
:10573000D9E74FF0000EDBE70A310132B5F834C08B
:1057400094450BD9B1F800C0E64506D86445F3D2BC
:10575000022003E031463A46F0E702201A689289B7
:1057600002EB820206EB42060137D3E71F85EB51BD
:105770000268138940F6BD218B420CD840F6970190
:105780008B420BD8D37D012B02D040F28C40704766
:105790004FF49660704740F6550070474FF4C8606C
:1057A00070470B68DB7D012B09D04FF448735B0118
:1057B000013B0130B3FBF0F01F2803D870474FF4D2
:1057C0009663F4E71F20F9E70B68DB7D012B06D019
:1057D0004FF448735B010130B3FBF0F070474FF4B6
:1057E0009663F7E770B504460368D97E93F82320E3
:1057F00091421BD0597F8A4223D0D97F8A422BD035
:1058000093F821108A4233D0A368012583F8A05071
:10581000A368002283F8A120A26892F8A030012B8F
:1058200032D0032B76D0102353662FE0187F93F8E5
:105830006C108842DED1A368012283F8A0200025E5
:10584000E6E7987F93F86C108842D6D1A3680222CD
:1058500083F8A0200025DBE793F8200093F86C1074
:105860008842CDD1A368032283F8A0200025CFE78A
:1058700093F8222093F86C309A42C5D1A368042291
:1058800083F8A0200025C3E701235366A3684FF0E7
:1058900080729A6623682246012193F87200FFF70E
:1058A00003FBA36800229A6223689B7D012B35D0FD
:1058B00023685B686268127DB3FBF2F38C4A934203
:1058C00032D9A268936A43F040039362A2682368C6
:1058D00093F87410936A43EA81239362A268936AEF
:1058E00043F480539362A268936A43F00043936247
:1058F000A26800231363A2685363A268D362A268FC
:1059000092F8A030012B1ED0032B00F0A5801023AD
:1059100013631AE04FF480735366B7E7A268936A83
:1059200043F001039362C3E7724A934205D9A26828
:10593000936A43F030039362C8E7A268936A43F026
:1059400020039362C2E701231363A3684FF48052DC
:105950009A63236893F87D30A26843EA03131364C3
:10596000236893F87C209301A16843EA0213CB6378
:10597000A26800235364A2689364A268D364A268F7
:105980001365A26801235365A2689365236893F8A1
:105990007E30012B64D0A36800229A652268A36838
:1059A000526ADA652268A368526A1A66236893F815
:1059B0007E30012B58D0A268D36D43F44033D365B9
:1059C000A268D36D43F44023D365A268D36D43F03E
:1059D0008073D365A268136E43F400331366A26824
:1059E000136E43F400231366A268136E43F08073B2
:1059F0001366236893F87E30012B40D0A3684FF0E4
:105A00004872DA662268B2F87630002B3BD1204625
:105A1000FFF7AEFE2146FFF7C4FE06462146FFF71C
:105A2000D3FEA368A3F8A400A36883F8A26036029B
:105A3000A36846F041061E67A3684FF080525A677C
:105A40002368DB7D012B25D0A268536F43F001034F
:105A5000536723689B7B2EE04FF48073136374E7D6
:105A6000A36811229A6596E7A268D36D43F4807308
:105A7000D365A268136E43F4807313669BE7A36833
:105A80001D4ADA66BEE71089A0F516709842C1D3A8
:105A90001846BFE7A3684FF480125A67D4E720691D
:105AA000C2EBC20100EBC10086880121B14001397F
:105AB000C1800BE013465A1E03B3E168742302FB56
:105AC00003F3194491F872100129E8D0E1680B44FE
:105AD00093F87230022BEDD12369C2EBC20103EBC4
:105AE000C1039888198A023911FB00F1D980E1E7D6
:105AF00000366E01001BB700000021032368224618
:105B0000022193F87300FFF7CFF9A3684FF080529A
:105B1000C3F89C202368DB7D012B1BD0A368434A7C
:105B20009A67A368203ADA6723689B7D012B17D018
:105B300023685B683E4A93422CD96268527DB3FB6E
:105B4000F2F33B4A934216D8A268D36F43F0200386
:105B5000D36724E0A3684FF48012C3F89C20DDE7EC
:105B6000A268936F43F001039367A268D36F43F079
:105B70000103D367DCE72F4A934205D8A268D36FAD
:105B800043F03003D3670AE0A268D36F43F04003C9
:105B9000D36704E0A268D36F43F02003D367216882
:105BA00091F8932042EA820343EA021343EA821304
:105BB00091F8912043EA0243A16843EA8243C1F885
:105BC0008030216891F8942042EA820343EA02136C
:105BD00043EA821391F8922043EA0243A16843EA20
:105BE0008243C1F88830A368D3F88020C3F88420AA
:105BF000A2680023C2F88C30A268C2F89430A3686F
:105C00004FF08072C3F898202368DB7D012B06D00B
:105C1000A36841F24152C3F89020284670BDA368A2
:105C200041F64172C3F89020F7E700BF20100C80C6
:105C3000001BB70000366E0138B50446FFF7D2FDF1
:105C400005462046FFF75CFB23460022114606204E
:105C5000FFF737FC2046FFF758FC21460020FFF7EE
:105C6000E4F9284638BD0B689B7B834209D90B6950
:105C7000C0EBC00003EBC00090F82C0000F0010066
:105C800070470020704713689B7B83420DD9D3680F
:105C9000742202FB0030838E8B4208D9436801EBEB
:105CA000810103EB41018879704700207047002093
:105CB00070470B689B7B83420CD9CA68742303FB33
:105CC00000F0131893F87330023B032B04D81058DC
:105CD000303070470020704700207047F0B40768EC
:105CE00046688568C46801694269C36947B1002094
:105CF00046B14DB154B159B162B16BB1F0BC70470E
:105D00000220F5E70220F4E70220F3E70220F2E7A1
:105D10000220F1E70220F0E70220EFE743680022CB
:105D20005A809A717047704708B50346084A106850
:105D3000084A121A9A4203DB0344054A136008BD5D
:105D400009F0DAFE0C2303604FF0FF30F7E700BFE5
:105D50007024000800E80F0808B501F0D9FE08BD5E
:105D600008B501F0A1F908BD00F1080343604FF048
:105D7000FF328260C3600361002303607047002329
:105D80000361704743684B609A688A60516099600C
:105D900008610368013303607047036941688268E2
:105DA0008A60416851605A68824206D000220261CE
:105DB0001A68013A1A601868704782685A60F5E7F5
:105DC00030B40D68B5F1FF3F11D000F108031C4657
:105DD0005B681A68AA42FAD963684B6099608C6064
:105DE0006160086103680133036030BC7047046977
:105DF000F2E7000082B0002301930D4B1B68B3F162
:105E0000FF3F08D04FF03F0383F31188BFF36F8F3C
:105E1000BFF34F8F01BE4FF03F0383F31188BFF3F1
:105E20006F8FBFF34F8F019B002BFCD002B07047E8
:105E30007424000808480068006880F308884FF060
:105E4000000080F3148862B661B6BFF34F8FBFF3D2
:105E50006F8F00DF00BF000008ED00E0DFF80C00EE
:105E6000016841F4700101607047000088ED00E0B6
:105E700008B54FF03F0383F31188BFF36F8FBFF373
:105E80004F8F01F085F828B14FF0E0234FF080529A
:105E9000C3F8042D002383F3118808BD4FF08073ED
:105EA00040F8043C21F0010140F8081C054B40F883
:105EB0000C3C40F8202C6FF0020340F8243C44389E
:105EC000704700BFF55D00100000000000000000FA
:105ED000074B19680868B0E8F04F80F30988BFF3F2
:105EE0006F8F4FF0000080F311887047AFF3008090
:105EF000C43E00084FF03F0383F31188BFF36F8F58
:105F0000BFF34F8F0B4A136801331360012B00D08E
:105F100070474FF0E023D3F8043D13F0FF0FF7D0A4
:105F20004FF03F0383F31188BFF36F8FBFF34F8FA1
:105F300001BEEDE774240008094B1B6843B94FF01C
:105F40003F0383F31188BFF36F8FBFF34F8F01BE01
:105F5000034A1368013B13600BB983F31188704740
:105F60007424000800000000000000000000000091
:105F7000EFF30980BFF36F8F154B1A681EF0100FF7
:105F800008BF20ED108A20E9F04F10602DE90900CC
:105F90004FF03F0080F31188BFF34F8FBFF36F8F37
:105FA00001F05CF94FF0000080F3118809BC19681A
:105FB0000868B0E8F04F1EF0100F08BFB0EC108A70
:105FC00080F30988BFF36F8F704700BFAFF3008085
:105FD000C43E00084FF0E022002313619361074B99
:105FE0001B680749A1FB03139B09013B536107236E
:105FF0001361044B9B68044ADA637047E02200088F
:10600000D34D621000ED00E0715E001030B583B03A
:106010004FF0E023D3F8002D3E4B9A421AD04FF0B8
:10602000E023D3F8002D3C4B9A421DD03B4B1A780D
:10603000D2B20192FF221A701B78DBB28DF80330C6
:106040009DF8033003F03F03354A1370354B0722A8
:106050001A601DE04FF03F0383F31188BFF36F8F89
:10606000BFF34F8F01BEDAE74FF03F0383F3118890
:10607000BFF36F8FBFF34F8F01BED7E7294A136875
:10608000013B13609DF803305B00DBB28DF80330F9
:106090009DF8033013F0800FF0D1224B1B68042BC6
:1060A00008D04FF03F0383F31188BFF36F8FBFF326
:1060B0004F8F01BE1B4A13681B02136003F4E06399
:1060C0001360019BDBB2154A13704FF0E024D4F843
:1060D000203D43F47F03C4F8203DD4F8203D43F035
:1060E0007F43C4F8203DFFF775FF00250E4B1D6070
:1060F000FFF7B4FED4F8343F43F04043C4F8343FD4
:10610000FFF798FE01F0AAF8FFF774FE284603B0E7
:1061100030BD00BF71C20F4170C20F4100E400E00A
:106120006C3E0008703E000874240008EFF30583FD
:106130000F2B0FD9114A9B5CDBB2114A12789A429D
:1061400008D94FF03F0383F31188BFF36F8FBFF37C
:106150004F8F01BE4FF0E023D3F80C3D03F4E06312
:10616000084A1268934208D94FF03F0383F311881D
:10617000BFF36F8FBFF34F8F01BE7047F0E300E0B6
:106180006C3E0008703E00084FF03F0383F3118817
:10619000BFF36F8FBFF34F8F01BEFEE74FF03F039A
:1061A00083F31188BFF36F8FBFF34F8F01BEFEE7FC
:1061B00010B5044601F0ACFC204609F0D7FE0446B9
:1061C00000F072FF0CB1204610BDFFF7DDFFFAE7CB
:1061D00048B110B5044601F09BFC204609F0CEFE04
:1061E00000F062FF10BD70470346406A18B11B6B98
:1061F0001868C0F10700704710B50446FFF77AFE33
:10620000A26BE36B9A4204D00024FFF795FE204670
:1062100010BD0124F9E710B50446FFF76BFEA36B30
:1062200023B90124FFF788FE204610BD0024F9E7BA
:1062300070B504461546866B026C5AB903681BB1EB
:1062400000200136A66370BD806801F0F1FD0023D7
:10625000A360F6E76DB9406809F098FE226C6368A8
:1062600013446360A268934219D32368636028468D
:10627000E7E7C06809F08AFE226C5142E3689B1A86
:10628000E3602268934202D2A3680B44E360022DCC
:1062900001D00020D5E726B1013E0020D1E72846F5
:1062A000CFE70020CDE70346026C6AB110B508467F
:1062B000D9681144D9609C68A14201D31968D9609A
:1062C000D96809F063FE10BD704738B50546FFF781
:1062D00011FE95F8454064B201E0013C64B2002C27
:1062E0000ADD6B6A43B105F1240001F0D7F80028FC
:1062F000F3D001F0A9F9F0E7FF2385F84530FFF767
:106300001BFEFFF7F7FD95F8444064B201E0013C45
:1063100064B2002C0ADD2B6943B105F1100001F0D5
:10632000BDF80028F3D001F08FF9F0E7FF2385F8DE
:106330004430FFF701FE38BD2DE9F8430E46914683
:106340001D460446C8B116B3022D2DD0FFF7EEFE50
:10635000EFF311884FF03F0383F31188BFF36F8F82
:10636000BFF34F8FA26BE36B9A422AD3022D28D042
:10637000002088F31188BDE8F8834FF03F0383F3D2
:106380001188BFF36F8FBFF34F8F01BEDBE7236C24
:10639000002BD9D04FF03F0383F31188BFF36F8FE9
:1063A000BFF34F8F01BECFE7E36B012BCED04FF091
:1063B0003F0383F31188BFF36F8FBFF34F8F01BE8D
:1063C000C4E794F845707FB2A36B2A463146204655
:1063D000FFF72EFFB7F1FF3F07D07F2F15D0013712
:1063E0007FB284F845700120C3E7636A0BB90120CE
:1063F000BFE704F1240001F051F880B1B9F1000FBA
:106400000FD00120C9F80000B3E74FF03F0383F33A
:106410001188BFF36F8FBFF34F8F01BEDFE70120FD
:10642000A7E70120A5E770B50E46044660B3236CCC
:1064300043B14FF03F0383F31188BFF36F8FBFF376
:106440004F8F01BE23684BB3FFF770FEEFF311854A
:106450004FF03F0383F31188BFF36F8FBFF34F8F6C
:10646000A26BE36B93423DD994F845305BB20132A5
:10647000A263B3F1FF3F1ED07F2B29D001335BB263
:1064800084F8453001202EE04FF03F0383F311885C
:10649000BFF36F8FBFF34F8F01BEC8E7A368002B18
:1064A000D2D04FF03F0383F31188BFF36F8FBFF358
:1064B0004F8F01BEC8E7636A0BB9012013E004F1F6
:1064C000240000F0EBFF88B196B1012030600AE0B3
:1064D0004FF03F0282F31188BFF36F8FBFF34F8FEE
:1064E00001BECBE7002085F3118870BD0120FAE7DB
